:100000000C9447000C9446000C9446000C94460057
:100010000C9446000C9446000C9446000C94460048
:100020000C9446000C9446000C9446000C94460038
:100030000C9446000C9446000C9446000C94460028
:100040000C9446000C9446000C94C7000C94460097
:100050000C9446000C9446000C9446000C94460008
:100060000C9446000C9446000C9446000C944600F8
:100070000C946C000C9446000C9446000C944600C2
:100080000C9446000C9446000C94460018950024ED
:10009000102C13940FBE0FEF0DBF00E10EBF0E9496
:1000A0005E030E9488030E94C2020E94BC020E945A
:1000B00071000E94AD000E94DD0078940E947303DD
:1000C0000E940902FFCF0E9467030E944D030E9415
:1000D0006D030E944D03F7CF0091CE000E944F01A7
:1000E000189500E01FE50093C5001093C40000932D
:1000F000CD001093CC0018E91093C10018E91093BB
:10010000C90016E01093C2001093CA000895009130
:10011000C80007FFFCCF0091CE0008951F931091F7
:10012000C80015FFFCCF0093CE001F91089501E495
:10013000F5DF03E6F3DF0BE6F1DF0DE0EFDF0AE0CA
:10014000EDDF08950EE4EADF01E6E8DF0BE6E6DF27
:100150000DE0E4DF0AE0E2DF089501E000936E00C5
:1001600000E004BD00E005BD00925E0700925F075D
:1001700008950F9300925E0710925F0704E005BD9B
:100180000F91089504BC05BC00925F070895F89490
:100190004F935F9340915E0750915F07423221F485
:1001A000442752E0EFDF01C0439540935E07509330
:1001B0005F075F914F91789418950F93AF93BF931A
:1001C000A1E6B7E008E090E09D930A95E1F7009280
:1001D0006007BF91AF910F9108950F931F93009106
:1001E00061071091690700936907109361070091F7
:1001F000620710916A0700936A07109362070091E3
:10020000630710916B0700936B07109363070091CE
:10021000640710916C0700936C07109364070091BA
:10022000650710916D0700936D07109365070091A6
:10023000660710916E0700936E0710936607009192
:10024000670710916F0700936F071093670700917E
:1002500068071091700700937007109368071F914B
:100260000F9108950F930E94DD000AEA0093610741
:100270000F9108950F931F932F93AF93BF93A1E610
:10028000B7E007E011272D91120F0A95E1F71195BC
:100290001C93BF91AF912F911F910F9108951F93C0
:1002A0002F93AF93BF9320916007201511F40A3A62
:1002B00089F4A1E6B7E0A20FB01D0C932395283076
:1002C00039F422270E946F01001511F40E943302B5
:1002D00020936007BF91AF912F911F9108951F93B5
:1002E0002F933F93AF93BF93112737E0A1E6B7E079
:1002F0002D91120F3A95E1F74D911195141711F4C4
:10030000002D01C0012DBF91AF913F912F911F9101
:1003100008950F931F932F93AF93BF9308E0A1E627
:10032000B7E01091C80015FFFCCF2D912093CE00AF
:100330000A95B9F7BF91AF912F911F910F91089531
:100340000F93009167070395009367070F91089536
:100350000093670708950093620708950093630769
:100360000895009364070895009365070895109217
:10037000660708950F9301E00068009366070F91E8
:1003800008951F930E9432010093620710E01093BA
:1003900063070E943A010E9489011F9108951F93EB
:1003A0000E9432010093620711E0109363070E94DC
:1003B0003A010E9489011F9108951F930E94320102
:1003C0000093620712E0109363070E943A010E94B3
:1003D00089011F9108951F930E94320100936207C3
:1003E00013E0109363070E943A010E9489011F9154
:1003F00008952F930E9432010093620723E0209317
:100400006307109364070E943A010E9489012F91AB
:1004100008950F931F930E94BE02102F003009F41D
:100420001FC0013029F40E94D7020E94E3020DC0D0
:10043000023029F40E94CB020E94E30206C003307E
:1004400021F40E94CB020E94D70200E00E94C10169
:100450000E943C030E94F9010E943C030E94DD01BE
:100460001F910F9108950F931F930091630700311F
:1004700061F400E00093630700936207009367074D
:100480000E943A010E9489015DC000916307013119
:1004900089F5109164070091650700936407009245
:1004A000650704E00093630700E00093670704E03A
:1004B000009362070E943A010E94890105E00093BF
:1004C00062070E943A010E9489010092620702E0DD
:1004D00000936307009264070E943A010E94890119
:1004E00010FD0E94CB0211FD0E94D70212FD0E9456
:1004F000E30228C000916307003821F50E94A001A3
:100500000E943A010E94890100916407023031F48F
:100510000091650700FD0E94EF0214C0009164077E
:10052000033031F40091650700FD0E94FB020AC010
:10053000063029F0073019F0083009F003C00E9496
:10054000CF0100C01F910F91089500916207013003
:1005500009F408950027089500916707085010F4E2
:1005600000270895012D0895009163070B3011F4C1
:10057000012D0895002D089507B8089506B100953E
:10058000037008950F930EE104B905B800EF0AB99E
:100590000BB80F9108950F9305B1026005B90E9441
:1005A0002B030D7F05B90E944D030F9108950F9302
:1005B00005B1046005B90E942B030B7F05B90E94A9
:1005C0004D030F9108950F9305B1086005B90E947E
:1005D0002B03077F05B90E944D030F9108950F93D8
:1005E00005B1006105B90E942B030F7E05B90E9479
:1005F0004D030F9108950F930BB100610BB90E9449
:100600002B030F7E0BB90E944D030F9108950F939A
:100610000BB100620BB90E942B030F7D0BB90E9436
:100620004D030F9108950F930BB100640BB90E9415
:100630002B030F7B0BB90E944D030F9108950F936D
:100640000BB100680BB90E942B030F770BB90E9406
:100650004D030F9108952F933F934F9326E237E672
:1006600045EF4A95F1F73A95E1F72A95D1F7000061
:100670004F913F912F9108952F933F934F932FE0E8
:1006800036EF4AEF4A95F1F73A95E1F72A95D1F717
:1006900000004F913F912F9108952F933F934F93D7
:1006A00024E03EEB4CE74A95E1F63A95D1F62A95DF
:1006B000C1F600004F913F912F9108950F9304B11F
:1006C000016004B905B10E7F05B90F9108950F932C
:1006D00005B1016005B90F9108950F9305B10E7F23
:1006E00005B90F9108950F9305E00E9467030E94DA
:1006F0004D030E946D030E944D030A95B1F70F91BF
:1007000008950E9467030E942B030E946D030895C1
:100710000F9304B701FF0C948F030F910895F89481
:100720000E942B030E9467030E942B030E946D030B
:10073000F7CF0E949D030C94A20200916207013042
:1007400059F400916307003839F40E9481030E9434
:0E0750002B030E94810302C00E9481030895C2
:10075E00000000000000000000000000000000008B
:03076E0000000088
:00000001FF
